{
  "contractName": "Hippodrome",
  "abi": [
    {
      "constant": false,
      "inputs": [
        {
          "name": "player",
          "type": "address"
        }
      ],
      "name": "checkPlayerExists",
      "outputs": [
        {
          "name": "",
          "type": "bool"
        }
      ],
      "payable": false,
      "stateMutability": "nonpayable",
      "type": "function"
    },
    {
      "constant": false,
      "inputs": [],
      "name": "kill",
      "outputs": [],
      "payable": false,
      "stateMutability": "nonpayable",
      "type": "function"
    },
    {
      "constant": false,
      "inputs": [],
      "name": "resetData",
      "outputs": [],
      "payable": false,
      "stateMutability": "nonpayable",
      "type": "function"
    },
    {
      "constant": false,
      "inputs": [
        {
          "name": "horseNumberWinner",
          "type": "uint256"
        }
      ],
      "name": "distributePrizes",
      "outputs": [],
      "payable": false,
      "stateMutability": "nonpayable",
      "type": "function"
    },
    {
      "constant": false,
      "inputs": [
        {
          "name": "horseNumber",
          "type": "uint256"
        }
      ],
      "name": "bet",
      "outputs": [
        {
          "name": "",
          "type": "uint256"
        }
      ],
      "payable": true,
      "stateMutability": "payable",
      "type": "function"
    },
    {
      "constant": false,
      "inputs": [],
      "name": "getPlayers",
      "outputs": [
        {
          "name": "",
          "type": "address[]"
        }
      ],
      "payable": false,
      "stateMutability": "nonpayable",
      "type": "function"
    },
    {
      "constant": false,
      "inputs": [],
      "name": "generateHorseWinner",
      "outputs": [],
      "payable": false,
      "stateMutability": "nonpayable",
      "type": "function"
    },
    {
      "payable": true,
      "stateMutability": "payable",
      "type": "fallback"
    }
  ],
  "bytecode": "0x606060405260018055600a600455341561001857600080fd5b610887806100276000396000f300606060405260043610610083576000357c0100000000000000000000000000000000000000000000000000000000900463ffffffff1680634081d9161461008557806341c0e1b5146100d6578063478c4e0e146100eb5780636ca3fc3b146101005780637365870b146101235780638b5b9ccc1461014f578063ebca8a8e146101b9575b005b341561009057600080fd5b6100bc600480803573ffffffffffffffffffffffffffffffffffffffff169060200190919050506101ce565b604051808215151515815260200191505060405180910390f35b34156100e157600080fd5b6100e9610272565b005b34156100f657600080fd5b6100fe610303565b005b341561010b57600080fd5b6101216004808035906020019091905050610325565b005b6101396004808035906020019091905050610566565b6040518082815260200191505060405180910390f35b341561015a57600080fd5b6101626106d7565b6040518080602001828103825283818151815260200191508051906020019060200280838360005b838110156101a557808201518184015260208101905061018a565b505050509050019250505060405180910390f35b34156101c457600080fd5b6101cc61076b565b005b600080600090505b600580549050811015610267578273ffffffffffffffffffffffffffffffffffffffff1660058281548110151561020957fe5b906000526020600020900160009054906101000a900473ffffffffffffffffffffffffffffffffffffffff1673ffffffffffffffffffffffffffffffffffffffff16141561025a576001915061026c565b80806001019150506101d6565b600091505b50919050565b6000809054906101000a900473ffffffffffffffffffffffffffffffffffffffff1673ffffffffffffffffffffffffffffffffffffffff163373ffffffffffffffffffffffffffffffffffffffff161415610301576000809054906101000a900473ffffffffffffffffffffffffffffffffffffffff1673ffffffffffffffffffffffffffffffffffffffff16ff5b565b6000600581610312919061078b565b5060006002819055506000600381905550565b61032d6107b7565b6000806000806000809450600093505b6005805490508410156104875760058481548110151561035957fe5b906000526020600020900160009054906101000a900473ffffffffffffffffffffffffffffffffffffffff16925086600660008573ffffffffffffffffffffffffffffffffffffffff1673ffffffffffffffffffffffffffffffffffffffff168152602001908152602001600020600101541415610428578286866064811015156103e057fe5b602002019073ffffffffffffffffffffffffffffffffffffffff16908173ffffffffffffffffffffffffffffffffffffffff16815250508480600101955050610427610303565b5b600660008473ffffffffffffffffffffffffffffffffffffffff1673ffffffffffffffffffffffffffffffffffffffff16815260200190815260200160002060008082016000905560018201600090555050838060010194505061033d565b6000600581610496919061078b565b5060646002548115156104a557fe5b049150600090505b8481101561055d57600073ffffffffffffffffffffffffffffffffffffffff1686826064811015156104db57fe5b602002015173ffffffffffffffffffffffffffffffffffffffff1614151561055057858160648110151561050b57fe5b602002015173ffffffffffffffffffffffffffffffffffffffff166108fc839081150290604051600060405180830381858888f19350505050151561054f57600080fd5b5b80806001019150506104ad565b50505050505050565b6000801515610574336101ce565b151514151561057f57fe5b60018210158015610591575060058211155b151561059957fe5b60015434101515156105a757fe5b34600660003373ffffffffffffffffffffffffffffffffffffffff1673ffffffffffffffffffffffffffffffffffffffff1681526020019081526020016000206000018190555081600660003373ffffffffffffffffffffffffffffffffffffffff1673ffffffffffffffffffffffffffffffffffffffff1681526020019081526020016000206001018190555060016003600082825401925050819055506005805480600101828161065a91906107f6565b9160005260206000209001600033909190916101000a81548173ffffffffffffffffffffffffffffffffffffffff021916908373ffffffffffffffffffffffffffffffffffffffff16021790555050346002600082825401925050819055506004546003541015156106cf576106ce61076b565b5b349050919050565b6106df610822565b600580548060200260200160405190810160405280929190818152602001828054801561076157602002820191906000526020600020905b8160009054906101000a900473ffffffffffffffffffffffffffffffffffffffff1673ffffffffffffffffffffffffffffffffffffffff1681526020019060010190808311610717575b5050505050905090565b6000600160054381151561077b57fe5b0601905061078881610325565b50565b8154818355818115116107b2578183600052602060002091820191016107b19190610836565b5b505050565b610c80604051908101604052806064905b600073ffffffffffffffffffffffffffffffffffffffff168152602001906001900390816107c85790505090565b81548183558181151161081d5781836000526020600020918201910161081c9190610836565b5b505050565b602060405190810160405280600081525090565b61085891905b8082111561085457600081600090555060010161083c565b5090565b905600a165627a7a7230582090678c4542874ca5dddf2ea9c4b2cdc9ffddde952810a82e6e6e44be77b935070029",
  "source": "pragma solidity ^0.4.11;\r\n\r\ncontract Hippodrome {\r\n    address owner;\r\n\r\n    function kill() {\r\n        if (msg.sender == owner)\r\n            selfdestruct(owner);\r\n    }\r\n\r\n    uint minimumBet=1;\r\n    uint totalBet;\r\n    uint numberOfBets;\r\n    uint maxAmountOfBets = 10;\r\n    address[] players;\r\n\r\n    struct Player {\r\n        uint amountBet;\r\n        uint horseSelected;\r\n    }\r\n\r\n    mapping(address => Player) playerInfo;\r\n\r\n//    function Hippodrome(uint _minimumBet) {\r\n//        owner = msg.sender;\r\n//        //  if(_minimumBet != 0 ) minimumBet = _minimumBet;\r\n//        minimumBet = 1;\r\n//    }\r\n\r\n    // To bet for a horse between 1 and 5 both inclusive\r\n    function bet(uint horseNumber) payable returns (uint) {\r\n        //if player has made his bet\r\n        assert(checkPlayerExists(msg.sender) == false);\r\n        assert(horseNumber >= 1 && horseNumber <= 5);\r\n        assert(msg.value >= minimumBet);\r\n        playerInfo[msg.sender].amountBet = msg.value;\r\n        playerInfo[msg.sender].horseSelected = horseNumber;\r\n        numberOfBets += 1;\r\n        players.push(msg.sender);\r\n        totalBet += msg.value;\r\n        if (numberOfBets >= maxAmountOfBets) generateHorseWinner();\r\n        return msg.value;\r\n    }\r\n\r\n    function getPlayers() public returns (address[]){\r\n        return players;\r\n    }\r\n\r\n    function checkPlayerExists(address player) public returns (bool) {\r\n        for (uint i = 0; i < players.length; i++) {\r\n            if (players[i] == player) return true;\r\n        }\r\n        return false;\r\n    }\r\n\r\n    // Generates a horseNumber between 1 and 5\r\n    function generateHorseWinner() {\r\n        uint horseNumberGenerated = block.number % 5 + 1;\r\n        // This isn't secure\r\n        distributePrizes(horseNumberGenerated);\r\n    }\r\n\r\n    // Sends the corresponding ether to each winner depending on the total bets\r\n    function distributePrizes(uint horseNumberWinner) {\r\n        address[100] memory winners;\r\n        // We have to create a temporary in memory array with fixed size\r\n        uint count = 0;\r\n        // This is the count for the array of winners\r\n        for (uint i = 0; i < players.length; i++) {\r\n            address playerAddress = players[i];\r\n            if (playerInfo[playerAddress].horseSelected == horseNumberWinner) {\r\n                winners[count] = playerAddress;\r\n                count++;\r\n                resetData();\r\n            }\r\n            delete playerInfo[playerAddress];\r\n            // Delete all the players\r\n        }\r\n        players.length = 0;\r\n        // Delete all the players array\r\n        uint winnerEtherAmount = totalBet / winners.length;\r\n        // How much each winner gets\r\n        for (uint j = 0; j < count; j++) {\r\n            if (winners[j] != address(0)) // Check that the address in this fixed array is not empty\r\n                winners[j].transfer(winnerEtherAmount);\r\n        }\r\n    }\r\n\r\n    function resetData(){\r\n        players.length = 0;\r\n        // Delete all the players array\r\n        totalBet = 0;\r\n        numberOfBets = 0;\r\n    }\r\n    // Fallback function in case someone sends ether to the contract so it doesn't get lost\r\n    function() payable {}\r\n\r\n}",
  "sourcePath": "C:\\Ann\\blockchain\\Hippodrome\\contracts\\Hippodrome.sol",
  "compiler": {
    "name": "solc",
    "version": "0.4.18+commit.9cf6e910.Emscripten.clang"
  },
  "schemaVersion": "1.0.1",
  "updatedAt": "2017-12-23T20:39:18.786Z"
}